:020000040800F2
:10000000D0070020851F0008890300088B03000823
:100010008F03000893030008970300080000000006
:100020000000000000000000000000009B0300082A
:100030009D030008000000009F030008A1030008C2
:100040009F1F00089F1F00089F1F00089F1F000898
:100050009F1F00089F1F00089F1F00089F1F000888
:100060009F1F00089F1F00089F1F00089F1F000878
:100070009F1F00089F1F00089F1F00089F1F000868
:100080009F1F00089F1F00089F1F00089F1F000858
:100090009F1F00089F1F00089F1F00089F1F000848
:1000A0009F1F00089F1F00089F1F00089F1F000838
:1000B000C3250008112500085F2400089F1F0008C1
:1000C0009F1F00089F1F00089F1F00089F1F000818
:1000D0009F1F00088D2000089F1F00089F1F000819
:1000E0009F1F00089F1F00089F1F00089F1F0008F8
:1000F0009F1F00089F1F00089F1F00089F1F0008E8
:100100009F1F00089F1F00089F1F00089F1F0008D7
:100110009F1F00089F1F00089F1F00089F1F0008C7
:100120009F1F00089F1F00089F1F00089F1F0008B7
:1001300000F002F800F042F80AA090E8000C8244B7
:100140008344AAF10107DA4501D100F037F8AFF294
:10015000090EBAE80F0013F0010F18BFFB1A43F0A5
:100160000103184784310000A4310000103A24BF75
:1001700078C878C1FAD8520724BF30C830C144BF0C
:1001800004680C607047000000230024002500264E
:10019000103A28BF78C1FBD8520728BF30C148BFEA
:1001A0000B607047642902F07D85632902F01B868D
:1001B000002070471FB51FBD10B510BD02F04EFEE8
:1001C0001146FFF7F7FF00F060F802F06CFE03B491
:1001D000FFF7F2FF03BC01F0FBFE00002DE9FE4F2C
:1001E00007460C4615461E46DDF83080284602F0CC
:1001F00065FE8146204602F061FE8246384602F0E6
:100200005DFE834653465A46442151A0CDE90096EF
:10021000CDF8088002F0DCFCBDE8FE8F10B502F0DE
:100220007CFB514A0121002002F041FC4F4A03218E
:10023000002002F03CFC4E4A0421002002F037FC72
:100240004C4A0521002002F032FC10BD10B501F02F
:1002500063FF01F0B7FE4FF4165001F0C8FE01F045
:10026000C5FF02F0B2FBFFF7D9FF47214FF6FF7041
:1002700001F0F4FF47214FF6FF7002F050F84721DC
:100280004FF6FF7002F09AF810BD08B500F0F9F8CB
:10029000FFF7DCFF4FF4967001F07BFF57E002F0B0
:1002A00001FA02F0C3FA02F092FA0423502219462E
:1002B0003C2002F0B5FB3048006802F01BFE04460B
:1002C00022460321412002F017FC2C48006802F06E
:1002D00011FE044622460421412002F00DFC28486C
:1002E000006802F007FE044622460521412002F084
:1002F00003FC2448006858B94E2048230090204849
:1003000002681E4801681C480068FFF767FF1AE092
:100310001C48001F006858B948204E230090184818
:1003200002681648016814480068FFF757FF0AE0A2
:100330004E200346009012480268104801680E489B
:100340000068FFF74BFF4FF47A7001F022FFA6E739
:1003500025632C2025642C2025642C2025642C204A
:1003600025632C2025630A00000000201A000020CD
:10037000250000202F000020980000209C00002075
:10038000A000002014812142704700BFFEE700BF9B
:10039000FEE700BFFEE700BFFEE77047704770470B
:1003A000704700000CB50020019000906C48006878
:1003B00040F480306A49086000BF6948006800F472
:1003C000003000900198401C0190009818B90198E5
:1003D000B0F5A06FF1D16248006800F4003010B1B0
:1003E0000120009001E0002000900098012843D1F6
:1003F0005C48006840F010005A49086008460068F0
:1004000020F0030008600846006840F00200086021
:10041000534840685249486008464068486008466A
:10042000406840F4806048600846406820F47C10D2
:1004300048600846406840F4E81048600846006894
:1004400040F08070086000BF4548006800F0007010
:100450000028F9D04248406820F003004049486035
:100460000846406840F00200486000BF3C484068D1
:1004700000F00C000828F9D10CBD10B5FFF792FF71
:1004800010BD10B53648006840F0010034490860DE
:1004900008464068344908403149486008460068C9
:1004A000324908402E4908600846006820F4802040
:1004B00008600846406820F4FE0048604FF41F00C2
:1004C0008860FFF7DAFF4FF000602949086010BD2F
:1004D00010B5002100200022214B5B6803F00C01C5
:1004E00021B1042906D0082928D107E0214B224C4C
:1004F000236027E01F4B204C236023E0184B5B68F0
:1005000003F47010164B5B6803F48032022303EB94
:10051000904022B9194B4343174C23600DE0104B18
:100520005B6803F4003323B1144B4343124C236044
:1005300003E0104B4343104C236003E00D4B0E4C83
:10054000236000BF00BF064B5B68C3F303130C4C72
:10055000E15C094B1B68CB40074C236010BD0000D9
:1005600000100240002002400000FFF8FFFFF6FEEE
:1005700008ED00E000127A005000002000093D0064
:100580005400002031490143314A1160704770B571
:10059000002100230F22C47804B32D4C246804F4F6
:1005A000E064C4F5E064210AC1F10403CA40447860
:1005B00004FA03F18478144021430901254C06789C
:1005C000A155047804F01F050124AC4005786D1195
:1005D000AD0005F1E025C5F8004109E0047804F01C
:1005E0001F050124AC401C4D0678761145F82640C5
:1005F00070BD1A4A0A400243154B1B1F1A60704710
:1006000039B1134A121D12680243114B1B1D1A60A7
:1006100006E00F4A121D126882430D4B1B1D1A6023
:100620007047042808D14FF0E021096941F0040126
:100630004FF0E022116107E04FF0E021096921F05D
:1006400004014FF0E0221161704700000000FA053C
:100650000CED00E000E400E080E100E080FFFF1F1F
:1006600010B50446CC48844208D10121042000F092
:100670002DFB0021042000F029FB46E0C7488442FE
:1006800008D10121082000F021FB0021082000F002
:100690001DFB3AE0C248844208D10121102000F03D
:1006A00015FB0021102000F011FB2EE0BD48844214
:1006B00008D10121202000F009FB0021202000F0BA
:1006C00005FB22E0B848844208D10121402000F017
:1006D000FDFA0021402000F0F9FA16E0B348844208
:1006E00008D10121802000F0F1FA0021802000F0E3
:1006F000EDFA0AE0AE48844207D10121801500F0EE
:10070000E5FA0021A01500F0E1FA10BD10B50121B5
:10071000084600F0DBFA0021012000F0D7FA10BDF6
:100720002DE9F04102460025002600200023002488
:10073000002791F803C00CF00F0591F803C00CF0EE
:10074000100CBCF1000F03D091F802C04CEA050573
:1007500091F800C0BCF1000F31D0146800202BE0EC
:100760004FF0010C0CFA00F3B1F800C00CEA0306DC
:100770009E4220D183004FF00F0C0CFA03F7BC43CC
:1007800005FA03FC4CEA040491F803C0BCF1280FFD
:1007900006D14FF0010C0CFA00FCC2F814C00AE0BC
:1007A00091F803C0BCF1480F05D14FF0010C0CFAD1
:1007B00000FCC2F810C0401C0828D1D31460B1F866
:1007C00000C0BCF1FF0F34DD546800202EE000F1C2
:1007D000080C4FF0010808FA0CF3B1F800C00CEA5D
:1007E00003069E4221D183004FF00F0C0CFA03F751
:1007F000BC4305FA03FC4CEA040491F803C0BCF1C5
:10080000280F05D100F1080C08FA0CF8C2F8148082
:1008100091F803C0BCF1480F07D100F1080C4FF06C
:10082000010808FA0CF8C2F81080401C0828CED342
:100830005460BDE8F0814FF6FF71018002218170A4
:100840000421C17070470246002093680B400BB131
:10085000012000E0002070470146886880B27047A0
:1008600002460020D3680B400BB1012000E00020BD
:1008700070470146C86880B27047016170474161A6
:1008800070470AB1016100E041617047C160704783
:100890004FF480320A438261816182618269826998
:1008A000704702460020434B18684FF6807318408B
:1008B00040EA021008433F4B186070473E49C86148
:1008C0007047F0B50A46002300240021002500F0FF
:1008D0000046B6F1004F02D1364EF16901E0354EC7
:1008E0007168C0F3034583B200F44016B6F5401FAB
:1008F00008D121F070612F4E766826F070662D4F7A
:100900007E6012E000F48016B6F5801F06D1032643
:1009100006FA05F4A14341F0706106E0460D360188
:1009200003FA06F6B14341F0706122B1460D36017B
:1009300003FA06F6314300F00046B6F1004F02D14B
:100940001C4EF16101E01B4E7160F0BD30B500221C
:100950008B071C0F0F2303FA04F2164B08338C107D
:1009600053F824309343134C08348D1044F8253049
:1009700023468C1053F824308C07240F00FA04F41B
:1009800023430C4C08348D1044F8253030BD0A49FF
:10099000DC3108607047000000080140000C014095
:1009A000001001400014014000180140001C0140EB
:1009B000002001400000014000002042DF480068A4
:1009C00040F00100DD49086008464068DC49084005
:1009D000DA49486008460068DA490840D7490860A3
:1009E0000846006820F4802008600846406820F42B
:1009F000FE0048604FF41F0088607047CF490968C7
:100A000021F48031CD4A11601146096821F480211A
:100A10001160B0F5803F03D0B0F5802F0ED106E015
:100A2000C649096841F48031C44A116007E0C349EE
:100A3000096841F4A021C14A116000E000BF00BF75
:100A4000704710B501460022002300204A11012AF8
:100A500002D1BA4C236806E0022A02D1B74C236ABD
:100A600001E0B64C636A01F01F02012494401C406F
:100A70000CB1012000E0002010BD38B5002000902E
:100A80000024002500BF3120FFF7DBFF054600985A
:100A9000401C00900098B0F5A06F01D0002DF2D05E
:100AA0003120FFF7CEFF08B1012400E000242046EA
:100AB00038BD01460020A14A106820F0F80040EA45
:100AC000C10010607047A0490860704702460020CE
:100AD0009A4B586820F47C1042EA01031843974B64
:100AE0005860704798490866704701460020934A4D
:100AF000506820F003000843506070478F484068FA
:100B000000F00C007047014600208C4A506820F02D
:100B1000F00008435060704701460020874A506843
:100B200020F4E06008435060704701460020834A8B
:100B3000506820F4605040EAC1005060704729B10D
:100B40007E4A527A02437D4B5A7204E07B4A527AC3
:100B500082437A4B5A7270477B49D831086070479C
:100B600001460020754A506820F440400843506018
:100B700070470021714A20321170704A82F82010AB
:100B8000012802D004280AD104E001216B4A203256
:100B9000117005E00521694A2032117000E000BFA4
:100BA00000BF70476949086070476449096A01439A
:100BB000624A11627047654944390860704730B530
:100BC00000210022002400235C4D6D6805F00C011B
:100BD00021B1042905D0082923D105E05C4D056029
:100BE00022E05B4D05601FE0544D6D6805F4701206
:100BF000524D6D6805F48034022505EB92421CB914
:100C0000544D554305600BE04C4D6D6805F40035BF
:100C10001DB1504D5543056002E04D4D55430560F3
:100C200002E04B4D056000BF00BF444D6D6805F00C
:100C3000F0010909484D6B5C0568DD4045603F4D9A
:100C40006D6805F4E061090A434D6B5C4568DD4061
:100C500085603A4D6D6805F46051C90A3E4D6B5C84
:100C60004568DD40C560354D6D6805F44041890B30
:100C70003A4D6B5CC568B5FBF3F5056130BD29B134
:100C80002E4A526902432D4B5A6104E02B4A5269A5
:100C900082432A4B5A61704729B1284A926902431C
:100CA000264B9A6104E0254A92698243234B9A615C
:100CB000704729B1214AD2690243204BDA6104E02E
:100CC0001E4AD26982431D4BDA61704729B11B4A23
:100CD000D2680243194BDA6004E0184AD2688243B2
:100CE000164BDA60704729B1144A12690243134B5C
:100CF0001A6104E0114A12698243104B1A6170476D
:100D000012494039086070470F49C86470470B4961
:100D1000C87170470948406A40F0807007494862CE
:100D2000704701460020054A92680A400AB1012036
:100D300000E00020704701498872704700100240AF
:100D40000000FFF8FFFFF6FE00004242800442422E
:100D500000127A0000093D006400002074000020A9
:100D600010B50446FE48844208D10121C014FFF7A3
:100D7000ADFF0021E014FFF7A9FFC4E0B4F1804FFC
:100D800008D101210846FFF7AEFF00210120FFF73F
:100D9000AAFFB8E0F348844208D101210220FFF7FE
:100DA000A2FF00210220FFF79EFFACE0EE48844244
:100DB00008D101210420FFF796FF00210420FFF74E
:100DC00092FFA0E0E948844208D101210820FFF702
:100DD0008AFF00210820FFF786FF94E0E448844260
:100DE00008D101211020FFF77EFF00211020FFF71E
:100DF0007AFF88E0DF48844208D101212020FFF7F4
:100E000072FF00212020FFF76EFF7CE0DA48844269
:100E100008D101214014FFF759FF00216014FFF7AA
:100E200055FF70E0D548844209D10121C804FFF77D
:100E30004DFF00214FF40020FFF748FF63E0D0484A
:100E4000844209D101210805FFF740FF00214FF43A
:100E50008010FFF73BFF56E0CA48844209D10121C8
:100E60004805FFF733FF00214FF40010FFF72EFF76
:100E700049E0C548844208D101214020FFF733FFF3
:100E800000214020FFF72FFF3DE0C048844208D1F9
:100E900001218020FFF727FF00218020FFF723FF9B
:100EA00031E0BB48844208D101218015FFF71BFFC8
:100EB0000021A015FFF717FF25E0B648844209D1AD
:100EC00001210804FFF702FF00214FF48030FFF7F3
:100ED000FDFE18E0B048844209D101214804FFF723
:100EE000F5FE00214FF40030FFF7F0FE0BE0AB48B9
:100EF000844208D101218804FFF7E8FE00214FF465
:100F00008020FFF7E3FE10BD00220288944B984238
:100F10000ED0994B98420BD0B0F1804F08D0914B36
:100F2000984205D0904B984202D0904B984204D101
:100F30004FF68F731A404B881A438D4B984207D057
:100F40008C4B984204D04FF6FF431A40CB881A438B
:100F500002808B8883850B880385814B98420BD058
:100F6000854B984208D08B4B984205D08A4B9842CB
:100F700002D08A4B984201D10B7A038601238382E7
:100F8000704770B5002400220023058C4FF6FE76D2
:100F900035400584028C8388048B4FF68F752C4076
:100FA000B51E2C400D882C43751E2A400D892A43FE
:100FB0004D882A436A4DA8420BD06F4DA84208D0F5
:100FC000744DA84205D0744DA84202D0734DA8427A
:100FD00013D14FF6F7752A404D892A434FF6FB751A
:100FE0002A408D882A434FF6FF652B404FF6FF5568
:100FF0002B408D892B43CD892B4383800483CD885F
:101000008586028470BD70B5002400220023058C03
:101010004FF6EF7635400584028C8388048B48F6C2
:10102000FF752C404FF6FF452C400D884FF6FF769C
:1010300006EA05252C434FF6DF752A400D8906EA9E
:1010400005152A434D8806EA05152A43444DA84252
:1010500002D0494DA8421DD14FF67F752A404D89D7
:101060004FF6FF7606EA05152A434FF6BF752A406C
:101070008D8806EA05152A434FF6FF352B404FF2BF
:10108000FF752B408D8906EA85052B43CD8906EA3D
:1010900085052B4383800483CD880587028470BD3A
:1010A00070B5002400220023058C4FF6FF66354002
:1010B0000584028C8388848B4FF68F752C404FF605
:1010C000FC752C400D882C434FF6FF552A400D89A6
:1010D0004FF6FF7606EA05252A434D8806EA0525E0
:1010E0002A431F4DA84202D0234DA8421DD14FF2E2
:1010F000FF752A404D894FF6FF7606EA05252A43FB
:101100004FF6FF352A408D8806EA05252A434EF61C
:10111000FF752B404DF6FF752B408D8906EA0515AE
:101120002B43CD8906EA05152B4383808483CD8824
:101130008587028470BD70B5002200230024058CD1
:101140004EF6FF7635400584038C8488828B48F602
:10115000FF752A404FF6FF452A400D8820E0000029
:10116000002C01400004004000080040000C00403A
:10117000001000400014004000340140004C0140C9
:10118000005001400054014000180040001C004085
:101190000020004000400140004401400048014060
:1011A0004FF6FF7606EA05252A434DF6FF752B40DC
:1011B0000D8906EA05352B434D8806EA05352B4394
:1011C000FA4DA84202D0FA4DA84208D14BF6FF755D
:1011D0002C408D894FF6FF7606EA85152C438480D6
:1011E0008283CD88A0F84050038470BD828B4FF27B
:1011F000FF331A408283828B4FF6FF7303EA012389
:101200001A4382837047F0B50C4615460022002130
:101210000026078C4EF6FF7C07EA0C070784828BBA
:10122000018C4FF6FF7707EA043640F6FF473A4055
:101230004FF6FF7707EA05273A434FF6FF7707EAAD
:1012400003373A43D94FB8420ED0D94FB8420BD0EA
:10125000B0F1804F08D0D74FB84205D0D64FB84232
:1012600002D0D64FB84206D14DF6FF77394046F44A
:101270008057394305E047F6FF57394044F480571B
:10128000394382830184F0BD828B4FF6F3731A4099
:101290008283828B0A4382837047F0B50C461546E1
:1012A000002200210026078C4FF6FF6C07EA0C078E
:1012B0000784828B018C4FF6FF7707EA04264FF6EE
:1012C0000C773A404FF6FF7707EA03172F433A436C
:1012D000B64FB8420ED0B64FB8420BD0B0F1804FE7
:1012E00008D0B44FB84205D0B34FB84202D0B34F84
:1012F000B84206D14FF6FF57394046F4807739435C
:1013000005E04FF2FF57394044F480773943828338
:101310000184F0BD028B4FF2FF331A400283028B2F
:101320004FF6FF7303EA01231A4302837047F0B5B7
:101330000C461546002200210026078C4FF6EF7C54
:1013400007EA0C070784028B018C4FF6FF7707EA48
:10135000041640F6FF473A404FF6FF7707EA033797
:101360003A434FF6FF7707EA05273A438F4FB842D3
:101370000ED08F4FB8420BD0B0F1804F08D08D4FB8
:10138000B84205D08C4FB84202D08C4FB84206D13B
:101390004FF6DF77394046F01007394305E04FF646
:1013A0005F77394044F01007394302830184F0BD70
:1013B000028B4FF6F3731A400283028B0A430283B7
:1013C0007047F0B50C46154600220021068C4FF6FA
:1013D000FE773E400684028B018C4FF60C7632403D
:1013E0007E1C06EA03162E433243704EB0420ED0E6
:1013F0006F4EB0420BD0B0F1804F08D06D4EB0426E
:1014000005D06D4EB04202D06C4EB04206D14FF6C0
:10141000FD76314044F00106314305E04FF6F576A4
:10142000314044F00106314302830184F0BD70B5C0
:1014300005460C465D4885420ED05D4885420BD07E
:10144000B5F1804F08D05B48854205D05A488542A7
:1014500002D05A48854200D100E000BF208850B930
:101460002389A28861882846FFF7ABFFE1882846D8
:10147000FFF79EFF25E0208804280AD12389A2884F
:1014800061882846FFF753FFE1882846FFF742FFAF
:1014900017E0208808280AD12389A2886188284675
:1014A000FFF7FBFEE1882846FFF7EEFE09E02389FF
:1014B000A28861882846FFF7A6FEE1882846FFF744
:1014C00095FE70BD2DE9F04105460C46002601272A
:1014D000608808B9022600E00026A088012801D112
:1014E000022700E001272088A0B92389A28861880B
:1014F0002846FFF766FFE1882846FFF759FF238952
:101500003A4631462846FFF712FFE1882846FFF7A2
:1015100001FF13E02389A28861882846FFF707FFAF
:10152000E1882846FFF7F6FE23893A4631462846E9
:10153000FFF747FFE1882846FFF73AFFBDE8F08153
:101540000A884B881A438B881A43CB881A430B8925
:101550001A434B891A438B891A43A0F844207047D9
:101560004FF6FF71818000210180C18041800172AE
:1015700070470021018041808180C18001814181CB
:101580008181C181704700210180418001218180DA
:101590000021C1800181704700210180418081804C
:1015A000C18001814181818170470000002C014090
:1015B000003401400004004000080040000C0040DE
:1015C00021B1028842F00102028004E002884FF655
:1015D000FE731A400280704731B1B0F8442042F4E3
:1015E0000042A0F8442005E0B0F84420C2F30E0207
:1015F000A0F8442070471AB183890B43838102E02D
:1016000083898B43838170478182704741EA02035B
:10161000A0F8483070471AB183890B43838102E0F8
:1016200083898B438381704701894FF6F87211409B
:10163000018170470A46002101894FF68F731940D6
:1016400011430181704730B504460D4629462046B6
:10165000FFF7F0FF208940F00700208130BD2DE921
:10166000F04104460D4616461F46602D06D13B4606
:10167000012231462046FFF75AFE05E03B46012293
:1016800031462046FFF79DFE29462046FFF7D2FF50
:10169000208940F007002081BDE8F08130B50C467C
:1016A00000210189C9B24FF6FF7505EA03251543EC
:1016B00025432943018130BD2DE9F04105460E4601
:1016C00017469846002443463A4631462846FFF7D7
:1016D000E5FF2C894FF6F870044044F007044FF6FC
:1016E0008F70044044F070042C81BDE8F081F0B5A7
:1016F00004460D4616461F463B46324629462046BE
:10170000FFF7CCFF208940F480402081F0BD0185A7
:10171000828270470A46002101884FF68F73194074
:10172000114301807047F0B50C4615461E46002156
:10173000002200230189028B038C4FF6F877394091
:1017400021434FF6FC473A4040F201173A434FF627
:10175000DD773B404FF6FF7707EA06172F433B4301
:10176000018102830384F0BD0A460021018B4FF6FC
:101770008F7319401143018370470A460021018B82
:1017800048F6FF7319404FF6FF7303EA022319432B
:10179000018370470A460021818B4FF68F731940F1
:1017A0001143818370470A460021818B48F6FF73FD
:1017B00019404FF6FF7303EA0223194381837047F0
:1017C00021B1028842F08002028004E002884FF6D4
:1017D0007F731A400280704721B1828842F0040270
:1017E000828004E082884FF6FB731A408280704743
:1017F00021B1828842F00802828004E082884FF69C
:10180000F7731A408280704721B1828842F001024A
:10181000828004E082884FF6FE731A40828070470F
:101820000A460021018B4FF6F773194011430183DB
:1018300070470A460021018B4FF2FF7319404FF6A3
:10184000FF7303EA02231943018370470A4600210C
:10185000818B4FF6F77319401143818370470A4615
:101860000021818B4FF2FF7319404FF6FF7303EA9B
:1018700002231943818370470A460021018B4FF6EA
:10188000FB7319401143018370470A460021018B05
:101890004FF6FF3319404FF6FF7303EA0223194353
:1018A000018370470A460021818B4FF6FB73194074
:1018B0001143818370470A460021818B4FF6FF3325
:1018C00019404FF6FF7303EA0223194381837047DF
:1018D0000A460021018B4FF67F73194011430183A3
:1018E00070470A460021018BC1F30E014FF6FF73CA
:1018F00003EA02231943018370470A460021818BC2
:101900004FF67F7319401143818370470A460021C7
:10191000818BC1F30E014FF6FF7303EA02231943D3
:10192000818370470A460021018C4FF6FD731940F0
:101930001143018470470A460021018C4FF6F7736A
:1019400019401143018470470A460021018C4FF66B
:10195000DF7319404FF6FF7303EA02131943018442
:1019600070470A460021018C4FF67F7319404FF6ED
:10197000FF7303EA02131943018470470A460021EA
:10198000018C4FF6FF5319404FF6FF7303EA022311
:101990001943018470470A460021018C4FF2FF73FE
:1019A00019404FF6FF7303EA02231943018470477D
:1019B0000A460021018C4DF6FF7319404FF6FF7364
:1019C00003EA023319430184704730B50023012430
:1019D0008C40A3B2048C9C430484048C02FA01F56D
:1019E000ADB22C43048430BD30B5002304248C40B8
:1019F000A3B2048C9C430484048C02FA01F5ADB2BA
:101A00002C43048430BD70B50346002000241846E2
:101A1000183001258D40ACB21D8CA5431D8409B141
:101A2000082909D100EB6100056825F07005056003
:101A30000568154305600EE00D1FC5F34E052844EB
:101A4000056825F4E045056005684FF6FF7606EA6F
:101A500002263543056070BD21B1028842F00202C2
:101A6000028004E002884FF6FD731A40028070473E
:101A700021B1028842F00402028004E002884FF69D
:101A8000FB731A400280704721B1828842F08002C5
:101A9000828004E082884FF67F731A40828070470C
:101AA00002884FF6F7731A40028002880A430280C8
:101AB000704782884FF68F731A40828082880A436B
:101AC0008280704702894FF6F8731A4002810289BA
:101AD0000A430281704702894FF67F731A400281E0
:101AE00002890A430281704781847047818570476B
:101AF000818670470187704781877047A0F8401042
:101B0000704702884FF6FF431A40028002880A435A
:101B1000028070470146888E70470146088F7047E3
:101B20000146888F70470146B1F840007047014672
:101B3000888C70470146088D704702460020138A42
:101B40000B400BB1012000E000207047CA43028225
:101B5000704730B50246002000230024158A05EAAC
:101B60000103958905EA010413B10CB1012000E0DD
:101B7000002030BDCA4302827047000010B5044601
:101B8000FB48844209D101218803FFF79FF8002117
:101B90004FF48040FFF79AF832E0F648844209D1CA
:101BA00001214804FFF79FF800214FF40030FFF7B0
:101BB0009AF825E0F048844209D101218804FFF712
:101BC00092F800214FF48020FFF78DF818E0EB48E1
:101BD000844209D10121C804FFF785F800214FF4A0
:101BE0000020FFF780F80BE0E548844208D101218E
:101BF0000805FFF778F800214FF48010FFF773F81D
:101C000010BD2DE9F04786B005460E460024A246D9
:101C100000BFA1460027B08900B100BF2F462C8A23
:101C20004CF6FF700440F08804432C82AC894EF6D9
:101C3000F3100440B0883189084371890843044394
:101C4000AC81AC8A4FF6FF400440B0890443AC82BB
:101C500001A8FEF7B4FFC648874202D1DDF810A004
:101C600001E0DDF80CA0A88900F4004040B10AEBC7
:101C7000CA0000EB0A1031684900B0FBF1F807E038
:101C80000AEBCA0000EB0A1031688900B0FBF1F8DA
:101C90006420B8FBF0F004012009642101FB1089E5
:101CA000A88900F4004040B1322000EBC900B0FB2D
:101CB000F1F000F00700044308E0322000EB0910C7
:101CC0006421B0FBF1F000F00F0004432C8106B05A
:101CD000BDE8F0874FF41651016000218180C1807A
:101CE00001810C21418100218181704710B502469C
:101CF0000020108A4FF2FF0318400B884C882343C2
:101D00008C882343CC8823431843108210BD0021C4
:101D1000018041808180C180704721B1828942F475
:101D20000052828104E082894DF6FF731A4082815D
:101D30007047F0B50346002400260025002040F639
:101D40006A17B94200D100BF1846C1F3421401F02E
:101D50001F06012707FA06F5012C01D10C3004E01B
:101D6000022C01D1103000E014301AB107682F4363
:101D7000076002E00768AF430760F0BD1AB1838ACD
:101D80000B43838202E0838A8B4383827047028AFB
:101D90004FF6F0731A400282028A0A4302827047A9
:101DA00082894FF2FF731A40828182890A438281BD
:101DB000704721B1828942F00202828104E0828967
:101DC0004FF6FD731A4082817047028A4FF6DF7327
:101DD0001A400282028A0A430282704721B1028AB3
:101DE00042F48042028204E0028A4BF6FF731A40FA
:101DF00002827047C1F308028280704701468888DA
:101E0000C0F308007047818941F00101818170476A
:101E1000028BD2B20283028B42EA01220283704714
:101E2000028B02F47F420283028B0A4302837047D3
:101E300021B1828A42F02002828204E0828A4FF637
:101E4000DF731A408282704721B1828A42F0100209
:101E5000828204E0828A4FF6EF731A4082827047D2
:101E600021B1828A42F00802828204E0828A4FF61F
:101E7000F7731A408282704721B1828942F400428E
:101E8000828103E08289C2F30E028281704721B110
:101E9000828A42F40062828204E0828A4FF2FF73F7
:101EA0001A4082827047828A4FF6FB731A40828200
:101EB000828A0A438282704721B1828A42F00202FA
:101EC000828204E0828A4FF6FD731A408282704754
:101ED00002460020B1F5007F00D100BF13880B40FF
:101EE0000BB1012000E00020704701F40072B2F550
:101EF000007F00D100BFCA430280704770B5024620
:101F0000002400230025002040F66A16B14200D1CB
:101F100000BFC1F3421501F01F03012606FA03F3C7
:101F2000012D02D19689334006E0022D02D1168A96
:101F3000334001E0968A33400C12012606FA04F47D
:101F40001688344013B10CB1012000E0002070BDB0
:101F500010B50022002340F66A14A14200D100BF50
:101F60000A1201249440A3B2DC43048010BD000097
:101F7000003801400044004000480040004C004050
:101F8000005000400948804709480047FEE7FEE747
:101F9000FEE7FEE7FEE7FEE7FEE7FEE7FEE7FEE719
:101FA00004480549054A064B7047000083040008B1
:101FB00031010008D0010020D0070020D00300200C
:101FC000D003002010B54FF4A060FEF7DBFA10BD7F
:101FD000014600BF704700BF4B4A128802F0400222
:101FE000002AF9D0C2B2484B1B1D1A80704710B5A9
:101FF00086B00446012144F20400FEF74DFE42483B
:10200000FFF7BCFD4FF40070ADF8140003208DF80D
:10201000160018208DF8170005A93C48FEF780FB34
:102020004FF48060ADF8140004208DF8170005A966
:102030003648FEF775FB25208DF8000003208DF84B
:1020400001008DF8020001208DF803006846FEF7BC
:102050009EFA01940020ADF80800ADF80A00ADF832
:102060000C00ADF810000C20ADF80E0001A92648B8
:10207000FFF7C7FD012240F225512348FFF759FE23
:1020800001212148FFF749FE06B010BD10B540F20E
:1020900025511D48FFF732FF10B31B48FFF7AEFE76
:1020A000C4B21B48008800F40040C8B91848008832
:1020B00000F4804060B10A2C03D00020144908804D
:1020C00020E01348008840F400401149088019E0DE
:1020D0000D2C06D10E48008840F480400C49088041
:1020E00010E00B480088C0F30D000A490C54084862
:1020F0000088401C0649088008460088C72801DD82
:102100000020088010BD0000003801400008014098
:102110007C000020A400002010B56FF00400FEF742
:1021200080FA2E4800682E49B0FBF1F02D49087066
:102130000846007800EB4001C1EBC0104FF6FF717C
:1021400001EAC0002849088010BD0146254A1278DE
:102150004A434FF0E0235A6100229A611A461269FD
:1021600042F001021A6100BF4FF0E022106900F056
:1021700001021AB100F48032002AF5D04FF0E022BB
:10218000126922F001024FF0E0231A6100229A61E5
:1021900070470146144A12884A434FF0E0235A61BF
:1021A00000229A611A46126942F001021A6100BFC8
:1021B0004FF0E022106900F001021AB100F4803201
:1021C000002AF5D04FF0E022126922F001024FF010
:1021D000E0231A6100229A6170470000500000203D
:1021E00000127A007E0000208000002008B5012146
:1021F0000820FEF751FD3020ADF8000048208DF892
:10220000030003208DF8020069461048FEF788FAA3
:1022100008BD10B50E48006848B9002201210DA084
:1022200000F0D6FC4FF47A70FFF7B3FF0CE00848DB
:10223000001F006840B90022032106A000F0C8FC7E
:102240004FF47A70FFF7A5FF10BD0000000C0140AD
:102250001481214225642C2025640A0030B589B000
:1022600005460C4601210420FEF723FD012108202C
:10227000FEF712FD0020ADF80A00ADF80600ADF83B
:102280000850ADF8044001A9FC48FEF73DFE0020CF
:10229000ADF81800ADF82000ADF81A00ADF81E003A
:1022A0000120ADF81C0006A9F448FFF7C0F828206B
:1022B0008DF817004020ADF8140005A9F048FEF78E
:1022C0002FFA4021EE48FEF7DAFA10208DF81700B9
:1022D0000720ADF8140003208DF8160005A9E84882
:1022E000FEF71EFA0721E648FEF7C9FA1E208DF810
:1022F000100001208DF813008DF8110002208DF8D8
:10230000120004A8FEF743F901220321DB48FFF77E
:1023100072F90121D948FFF753F909B030BD30B542
:1023200089B005460C4601210220FEF7C2FC0121BE
:102330000420FEF7B1FC0020ADF80A00ADF806005D
:10234000ADF80850ADF8044001A9CE48FEF7DCFD19
:102350000020ADF81800ADF82000ADF81A00ADF877
:102360001E000120ADF81C0006A9C648FFF75FF863
:1023700028208DF817004020ADF8140005A9C248A8
:10238000FEF7CEF94021C048FEF779FA1D208DF8FE
:10239000100001208DF813008DF811008DF8120047
:1023A00004A8FEF7F4F801220321B648FFF723F949
:1023B0000121B448FFF704F909B030BD30B589B048
:1023C00005460C4601210846FEF773FC0121042056
:1023D000FEF762FC0020ADF80A00ADF80600ADF88B
:1023E0000850ADF8044001A94FF08040FEF78CFD85
:1023F0000020ADF81800ADF82000ADF81A00ADF8D7
:102400001E000120ADF81C0006A98007FFF70FF899
:1024100028208DF817000120ADF8140005A99A486E
:10242000FEF77EF901219848FEF729FA1C208DF865
:10243000100001208DF813008DF8110000208DF898
:10244000120004A8FEF7A3F8012203219007FFF76A
:10245000D2F801218807FFF7B3F809B030BD10B5F5
:102460008A48007800F0800000284CD10121834880
:10247000FFF76FFBD0B18548007800F04000A8B1AD
:102480008248007800F03F003F280AD17F4800785A
:1024900040F080007D4908704FF6FF707C4908804D
:1024A00004E07A480078401C78490870022173489B
:1024B000FFF74FFB38B37548007800F0400078B163
:1024C0007248007840F08000704908706B48FFF750
:1024D00021FB6F49088000216848FFF723FA12E0CA
:1024E00000206A4908706A49088000216348FFF7A4
:1024F000FBFA6648007840F0400064490870022109
:102500005E48FFF70FFA03215C48FFF733FB10BD6D
:1025100010B56048007800F0800000284CD10121FF
:102520005848FFF716FBD0B15A48007800F0400039
:10253000A8B15848007800F03F003F280AD155481C
:10254000007840F08000534908704FF6FF70524900
:10255000088004E04F480078401C4E490870022172
:102560004848FFF7F6FA38B34A48007800F04000D0
:1025700078B14848007840F08000464908704148EA
:10258000FFF7C8FA4449088000213E48FFF7CAF91E
:1025900012E000203F4908703F4908800021394877
:1025A000FFF7A2FA3B48007840F040003949087034
:1025B00002213448FFF7B6F903213248FFF7DAFA6F
:1025C00010BD10B53548007800F0800000284FD1CC
:1025D00001218807FFF7BDFAD0B13048007800F03C
:1025E0004000A8B12D48007800F03F003F280AD1F4
:1025F0002A48007840F08000284908704FF6FF70A4
:102600002749088004E025480078401C23490870C9
:1026100002214807FFF79DFA50B32048007800F0E8
:10262000400088B11D48007840F080001B490870C8
:102630004FF08040FFF76EFA1949088000214FF0F3
:102640008040FFF76FF913E0002014490870144927
:10265000088000214FF08040FFF746FA0F480078CD
:1026600040F040000D49087002214807FFF75AF971
:1026700003214FF08040FFF77DFA10BD00080040B5
:10268000000C0140000400400008014084000020CC
:10269000860000209000002092000020940000207E
:1026A0009600002070B501217848FEF7E6F8142066
:1026B000FFF74BFD01217548FEF7E1F874480078FB
:1026C00000F08000B8B17248007800F03F042404A4
:1026D0007048008804444FF4AA706043400842F2F6
:1026E0001071B0FBF1F5284600F024FC6A4908603F
:1026F0000020674908706848006800F0FBFB80B262
:1027000070BD70B502216148FEF7B7F81420FFF7DD
:102710001CFD02215D48FEF7B2F86048007800F029
:102720008000B8B15D48007800F03F0424045C48A4
:10273000008804444FF4AA706043400842F21071CC
:10274000B0FBF1F5284600F0F5FB56490860002083
:10275000524908705348006800F0CCFB80B270BD4D
:1027600070B504214948FEF788F81420FFF7EDFC06
:1027700004214648FEF783F81DE04B48007800F03E
:102780003F0424044948008804444748007800F086
:102790003F00454908704FF4AA706043400842F278
:1027A0001071B0FBF1F5284600F0C4FB4049086009
:1027B00000203D4908703C48007800F08000002867
:1027C000DBD13B48006800F095FB80B270BD70B56E
:1027D00004212E48FEF751F81420FFF7B6FC04211F
:1027E0002A48FEF74CF83348007800F08000B8B172
:1027F0003048007800F03F0424042F480088044447
:102800004FF4AA706043400842F21071B0FBF1F53A
:10281000284600F08FFB26490860002025490870F3
:102820002348006800F066FB80B270BD70B50221DD
:102830001648FEF722F81420FFF787FC0221134800
:10284000FEF71DF81D48007800F08000B8B11B4865
:10285000007800F03F0424041948008804444FF431
:10286000AA706043400842F21071B0FBF1F52846AF
:1028700000F060FB0B49086000201049087009480F
:10288000006800F037FB80B270BD0000000C014012
:10289000840000208600002098000020880000208E
:1028A0008A0000209C0000208C0000208E00002068
:1028B000A000002090000020920000209400002042
:1028C0009600002070B504460D46082625B904215F
:1028D000BB48FDF7D4FF03E00421B948FDF7CDFF65
:1028E00015E01021B648FDF7CAFF04F0800020B1C2
:1028F0000821B348FDF7C1FF03E00821B048FDF708
:10290000BEFF1021AE48FDF7B8FF6006040E300090
:10291000A6F10101CEB2E4D170BD10B500210C20AA
:10292000FFF7D0FF00218020FFF7CCFF002405E057
:1029300001210020FFF7C6FF601C84B2B4F5FC7FC4
:10294000F6DB10BD10B5044600212120FFF7BAFFC9
:1029500044F080000021FFF7B5FF00212020FFF7A1
:10296000B1FF10BD10B520219548FDF788FF01206B
:10297000FFF70FFC20219248FDF77FFF02219048CE
:10298000FDF77BFF0120FFF704FC02218C48FDF7D7
:1029900076FF00212120FFF795FF0021C820FFF7D7
:1029A00091FF00210620FFF78DFF00211320FFF784
:1029B00089FF00212020FFF785FF00210C20FFF771
:1029C00081FF4420FFF7BEFF10BD08B501210420A0
:1029D000FEF762F93E20ADF8000003208DF80200FA
:1029E00010208DF8030069467548FDF799FEFFF742
:1029F000B9FFFFF792FF08BD70B504460D46532C92
:102A000000DD5324052D00DD052545F040000021A3
:102A1000FFF758FF44F080000021FFF753FF70BD1F
:102A20002DE9F04704460D469046994600210C20BA
:102A3000FFF748FF00218020FFF744FF2E4612E0F9
:102A4000274609E0F1B2F8B2FFF7D6FF01210020D6
:102A5000FFF738FF781C87B204EB0800401CB8422F
:102A6000F0DC701C86B205EB0900401CB042E7DCCC
:102A7000BDE8F0872DE9F04106460F461446394679
:102A80003046FFF7B9FFA4F12000C4B200250AE0E8
:102A900004EB44014B4A02EB4101485D0121FFF781
:102AA00011FF681CC5B2072DF2DBBDE8F08170B5DF
:102AB00005460E46144610E014F8012B3146284610
:102AC000FFF7D8FFA81DC5B2542D06DD0025701CE8
:102AD000C6B2641E052E00DD002620780028EBD14A
:102AE00070BD10B50246012000E050430B00A1F17B
:102AF0000104E1B2F9D110BD2DE9F04780460F463F
:102B000015460024A1462E4625B9F9B2302240468A
:102B1000FFF7B0FF04E00A20B6FBF0F6601CC4B279
:102B2000002EF8D1A1461BE0601EC1B20A20FFF7BB
:102B3000D8FF0646B5FBF6F00A21B0FBF1F201FB27
:102B4000120000F1300AF9B2A9EB040202EB4202D2
:102B500008EB4202D0B25246FFF78CFF601EC4B2AF
:102B6000002CE1D1BDE8F0872DE9F04107460E4683
:102B7000154631463846FFF73FFF002409E005EBD4
:102B80004501114A02EBC101085D0121FFF79AFEE0
:102B9000641C0C2CF3DB701CC1B23846FFF72CFF11
:102BA0000C2409E005EB4501074A02EBC101085D71
:102BB0000121FFF787FE641C182CF3DBBDE8F081D0
:102BC00000080140E62F00080E32000870470000A0
:102BD0000FB4044910B503AA029800F011F910BC13
:102BE0005DF814FB780000202DE9F0410E46044604
:102BF000002020622046E168884730B3252805D0B0
:102C0000D4E901219047206A401CF2E7E1682046A0
:102C100000278847050018D0A5F14100192802D8DF
:102C200020354FF400673246294620462760FDF7DD
:102C3000B9FA40B1012804D0F61D26F0070608367F
:102C4000D8E7361DD6E72846DAE7206ABDE8F081E6
:102C500070B50C460546012A05D02878800600D5B7
:102C6000EA69002302E0012305E05B1C934202D2E3
:102C7000E05C0028F9D1A869E618C01AA861286AA2
:102C8000184428622846AFF3008004E0D5E901210A
:102C900014F8010B9047B442F8D32846AFF30080F4
:102CA00070BD00002DE9F04106460024106875292A
:102CB000314615A510D0AFF30080002802DA40425B
:102CC00012A507E031688A0701D511A502E049077E
:102CD00004D510A5012401E0AFF3008000210A23F0
:102CE00006F1240707E0B0FBF3F203FB12003030DB
:102CF00078541046491C0028F5D123462A46304610
:102D0000BDE8F04100F00CB8000000002D0000000C
:102D10002B0000002000000070477047704770478C
:102D20002DE9F0470D4699469246044600F12408E5
:102D30000168880604D5E06921F01001216000E0F7
:102D40000120A84201DD471B00E00027A1697A1994
:102D500002EB0900081AA0612078C00602D42046C0
:102D6000AFF30080002608E0D4E901211AF806003C
:102D70009047206A401C761C20624E45F4DB207888
:102D8000C0060AD52046AFF3008006E0D4E9012151
:102D900030209047206A401C2062381EA7F10107AE
:102DA000F4DC07E0D4E9012118F805009047206A17
:102DB000401C2062281EA5F10105F3DC2046AFF37C
:102DC00000802078000602D50220BDE8F0870120AF
:102DD000FBE710B5436913B1AFF3008001E0FFF7E3
:102DE00037FF012010BD127800F124010A70002283
:102DF0004A700122EDE711684FF0FF32E9E7000069
:102E0000074B70B50D467B4400F011F80446284688
:102E100000F020F810B14FF0FF3070BD204670BDBB
:102E2000CDF1FFFF01694A1C02610878704700B5C7
:102E30008FB0CDE901310021059105497944CDE9F3
:102E4000031011466846FFF7CFFE0FB000BD00002B
:102E5000E5FFFFFF007B00F080007047754600F043
:102E600029F8AE4605006946534620F0070085461E
:102E700018B020B5FFF794F8BDE820404FF00006E9
:102E80004FF000074FF000084FF0000B21F0070152
:102E9000AC46ACE8C009ACE8C009ACE8C009ACE895
:102EA000C0098D4670470446AFF300802046FDF709
:102EB0008EF90000004870476C01002041000B0EA5
:102EC000D3F19E0208D950F400034FEA032323FAFA
:102ED00002F048BF4042704710B500F03EF800BF16
:102EE00049922480002070476FF0004282EA20005F
:102EF00070470000C10DD1F19E0206DB4FEA0023AE
:102F000043F0004323FA02F07047004207D54FEA2E
:102F10004001B1F1FE4F02D24FF00000704710B5F2
:102F200000F01BF849922480002070476FEA2000CF
:102F300070470000B0FA80F310FA03F2C3F19D036A
:102F40000AD0D90501EB1220530638BF704700F1B3
:102F5000010008BF20F0010070470EF1020E2EF0B4
:102F6000030E5EF8044B244204D44FEA4102B2F14E
:102F70007F4F11D84FEA4003B3F17F4F0CD80ED1E9
:102F80004FEAD07CB2F17F4F0CEB4C0C0CF1020CF1
:102F900008BF4CEBD17C04E04FF0080C01E04FEA95
:102FA000D17C0CEB4C0324FA03F404F00704B4F1D5
:102FB000040C06D20EEB840CBDE810404CF0010C62
:102FC0006047DFE80CF0070802024FF00040A0F570
:102FD000800010BD0846420018BFD2F1807288BF41
:102FE00000F0004010BD0000000000000000002FB5
:102FF000000000000700070000147F147F14002465
:103000002A7F2A1200626408132300364955225091
:1030100000000503000000001C22410000004122C6
:103020001C000014083E08140008083E08080000B0
:1030300000A06000000808080808000060600000A8
:10304000002010080402003E5149453E0000427F26
:103050004000004261514946002141454B31001872
:1030600014127F10002745454539003C4A49493034
:1030700000017109050300364949493600064949EE
:10308000291E0000363600000000563600000008F9
:1030900014224100001414141414000041221408D6
:1030A00000020151090600324959513E007C1211BB
:1030B000127C007F49494936003E41414122007F50
:1030C0004141221C007F49494941007F090909010A
:1030D000003E4149497A007F0808087F0000417F8F
:1030E0004100002040413F01007F08142241007F41
:1030F00040404040007F020C027F007F0408107FA8
:10310000003E4141413E007F09090906003E415110
:10311000215E007F091929460046494949310001CD
:10312000017F0101003F4040403F001F2040201F21
:10313000003F4038403F00631408146300070870E4
:10314000080700615149454300007F414100005597
:103150002A552A55000041417F0000040201020463
:103160000040404040400000010204000020545450
:103170005478007F484444380038444444200038A0
:103180004444487F00385454541800087E09010212
:103190000018A4A4A47C007F080404780000447DE7
:1031A0004000004080847D00007F10284400000023
:1031B000417F4000007C04180478007C08040478F7
:1031C00000384444443800FC2424241800182424E3
:1031D00018FC007C080404080048545454200004DF
:1031E0003F444020003C4040207C001C2040201CEC
:1031F000003C4030403C004428102844001CA0A063
:10320000A07C004464544C441414141414148445D5
:10321000F62CC15D55D5555DC100000007000705BE
:10322000050705050700B22AE688AAAAFFAAAABED2
:103230008800040302040404070404040400FC00DE
:10324000FF00F90909FF0909F90004020100010062
:10325000000700010100224A926702F2129792F2DF
:103260000200010700000007040404040700080826
:103270000808C83FC808080C080004040201000040
:103280000001020404009C84959695D6B49487941A
:103290008C0000000004040700000000000004048B
:1032A00004847C151614F4060400040402010004CE
:1032B00004040300000010111111D13FD1111111AC
:1032C0001000040402010000000102040400182A96
:1032D0002A2EFAAEA9ADAB29180004040205050296
:1032E0000205040404000000083300080000002068
:1032F000A40000006C010008AC330008A40000200A
:103300002C07000088010008436172204469732083
:10331000416C61726D0000000000545F436F756E78
:10332000743A52494748545F4449533A004C454621
:10333000545F4449533A004241434B5F4449533A36
:10334000000000000000000000000000000000007D
:10335000000000000000000000A24A04000000007D
:103360000000000001020304060708090000000035
:103370000102030401020304060708090204060807
:10338000000000000000000000000000000000003D
:10339000000000000000000000000000000000002D
:0C33A00000000000000000000000000021
:0400000508000131BD
:00000001FF
